:0200000460009A
:100000004643464200000156000000000203030080
:1000100000000000000000000000000000000000E0
:1000200000000000000000000000000000000000D0
:1000300000000000000000000000000000000000C0
:1000400000000000010408000000000000000000A3
:100050000000800000000000000000000000000020
:100060000000000000000000000000000000000090
:100070000000000000000000000000000000000080
:10008000EB04180A063204260000000000000000FD
:10009000050404240000000000000000000000002F
:1000A0000000000000000000000000000000000050
:1000B0000604000000000000000000000000000036
:1000C0000000000000000000000000000000000030
:1000D00020041808000000000000000000000000DC
:1000E0000000000000000000000000000000000010
:1000F0000000000000000000000000000000000000
:10010000D8041808000000000000000000000000F3
:100110000204180804200000000000000000000095
:1001200000000000000000000000000000000000CF
:10013000600400000000000000000000000000005B
:1001400000000000000000000000000000000000AF
:10015000000000000000000000000000000000009F
:10016000000000000000000000000000000000008F
:10017000000000000000000000000000000000007F
:10018000000000000000000000000000000000006F
:10019000000000000000000000000000000000005F
:1001A000000000000000000000000000000000004F
:1001B000000000000000000000000000000000003F
:1001C000000100000010000001000000000000001D
:1001D000000001000000000000000000000000001E
:1001E000000000000000000000000000000000000F
:1001F00000000000000000000000000000000000FF
:10100000D10020410024000000000000000000008A
:101010002020000000200000000000000000000070
:101020000010000000A0000000000000FFFFFFFF14
:101400000000022009290000552900005929000088
:10141000512900005129000051290000000000005E
:101420000000000000000000000000005D29000036
:101430005129000000000000612900005B680000E5
:10144000692900006D29000071290000752900003C
:10145000792900007D2900008129000085290000EC
:10146000892900008D29000091290000952900009C
:10147000992900009D290000A1290000A52900004C
:10148000A92900005129000051290000512900001C
:10149000AD290000B1290000B5290000B9290000DC
:1014A000BD290000C1290000C5290000C92900008C
:1014B000CD290000D1290000D5290000D92900003C
:1014C000DD290000E1290000E5290000E9290000EC
:1014D000ED290000F12900005129000051290000E8
:1014E0005129000051290000512900005129000014
:1014F0005129000051290000512900005129000004
:1015000051290000512900005129000051290000F3
:1015100051290000512900005129000051290000E3
:10152000F5290000F9290000FD290000012A00002A
:10153000052A00005129000051290000512900000E
:1015400051290000512900005129000051290000B3
:1015500051290000512900005129000051290000A3
:101560005129000051290000512900005129000093
:101570005129000051290000512900005129000083
:101580005129000051290000512900005129000073
:101590005129000051290000512900005129000063
:1015A0005129000051290000092A00000D2A0000DD
:1015B0005129000051290000512900005129000043
:1015C0005129000051290000512900005129000033
:1015D0005129000051290000512900005129000023
:1015E000512900005129000051290000112A000052
:1015F000152A000051290000192A00001D2A0000A8
:101600008568000081680000212A0000252A00006A
:1016100051290000512900005129000051290000E2
:1016200051290000512900005129000051290000D2
:1016300051290000512900005129000051290000C2
:1016400051290000512900005129000051290000B2
:1016500051290000512900005129000051290000A2
:101660005129000051290000512900005129000092
:101670005129000051290000512900005129000082
:101680005129000051290000512900005129000072
:101690005129000051290000512900005129000062
:1016A000292A00002D2A0000312A000051290000BB
:1016B000352A00005129000051290000512900005D
:1016C0005129000051290000512900005129000032
:1016D0005129000051290000512900005129000022
:1016E0005129000051290000512900005129000012
:1016F0005129000051290000512900005129000002
:1017000051290000512900005129000051290000F1
:1017100051290000512900005129000051290000E1
:1017200051290000512900005129000051290000D1
:1017300051290000512900005129000051290000C1
:1017400051290000512900005129000051290000B1
:1017500051290000512900005129000051290000A1
:101760005129000051290000512900005129000091
:101770005129000051290000512900005129000081
:101780005129000051290000512900005129000071
:101790005129000051290000512900005129000061
:1017A0005129000051290000512900005129000051
:1017B0005129000051290000512900005129000041
:1017C0005129000051290000512900005129000031
:1017D0005129000051290000512900005129000021
:1017E0005129000051290000512900005129000011
:1017F000512900005129000051290000FFFFFFFF7F
:101800000348044B834202D0034B03B1184770478F
:101810005403002054030020000000000548064B3C
:101820001B1AD90F01EBA301491002D0034B03B1DE
:1018300018477047540300205403002000000000A4
:1018400010B5064C237843B9FFF7DAFF044B13B108
:101850000448AFF300800123237010BD000800206E
:10186000000000007883000008B5054B1BB1054956
:101870000548AFF30080BDE80840FFF7CFBF00BFC9
:10188000000000000408002078830000A3F5803ADF
:10189000704700BF174B002B08BF134B9D46FFF747
:1018A000F5FF00218B460F461348144A121A04F024
:1018B000C5FC0E4B002B00D098470D4B002B00D0E1
:1018C00098470020002104000D000D48002802D098
:1018D0000C48AFF3008004F03FFA2000290000F02C
:1018E0002FFB04F027FA00BF0000080000000000F2
:1018F000000000000000022000080020503F0020EF
:10190000000000000000000072B60A480A490160A9
:101910000A6882F30888094880470949094A0A4B3E
:101920009A42BEBF51F8040B42F8040BF8E762B6C6
:101930000648804708ED00E000240000095E000032
:10194000A083000000000020540300209528000020
:10195000FFF7FEBF3848004738480047384800477F
:10196000384800473848004738480047384800475B
:10197000384800473848004738480047384800474B
:10198000384800473848004738480047384800473B
:10199000384800473848004738480047384800472B
:1019A000384800473848004738480047384800471B
:1019B000384800473848004738480047384800470B
:1019C00038480047384800473848004738480047FB
:1019D00038480047384800473848004738480047EB
:1019E00038480047384800473848004738480047DB
:1019F00038480047384800473848004738480047CB
:101A000038480047384800473848004738480047BA
:101A100038480047384800473848004738480047AA
:101A2000384800473848004738480047384800479A
:101A30003848004738480047552900005929000018
:101A40005D290000612900005B6800005129000049
:101A5000512900005129000051290000512900009E
:101A6000512900005129000051290000512900008E
:101A7000512900005129000051290000512900007E
:101A8000512900005129000051290000512900006E
:101A90001D5B00003D5B00005D5B00007D5B0000A6
:101AA0009D5B0000BD5B0000DD5B0000FD5B000096
:101AB000512900005129000051290000512900003E
:101AC0004D5A0000815A0000B55A0000E95A000042
:101AD000512900005129000051290000512900001E
:101AE000512900005129000051290000512900000E
:101AF00051290000512900005129000051290000FE
:101B000051290000512900005129000051290000ED
:101B10005129000051290000512900002DE9F04110
:101B200086B0304F03F0B1FE2F4B304E05461860A3
:101B3000030A38465B02336404F048F9C0F5BF730A
:101B400004460133082B31D9294B07EB000E01AABB
:101B500003F110081868083353F8041C94464345F1
:101B6000ACE803006246F5D11B780EF1FF311C2270
:101B70008CF8003025FA02F3043A03F00F0318330F
:101B80006B4413F8143C01F8013F131DF2D10023FC
:101B900004F108008EF80830C4F5BB730133062B3E
:101BA0001DD90E341349384404F0FAF80F490020C7
:101BB000022334610A6906308B821831C2F30804AB
:101BC000520A002C18BF0132122813449BB203F1B1
:101BD000FF3221F8022CEDD106B0BDE8F0810446B9
:101BE000E4E700BF040100201C08002040000020A2
:101BF0006F7E0000687E0000034610B51C1A9442F8
:101C000000DB10BD0C781CB1013103F8014BF5E786
:101C10002024FAE72DE9F8430C4605464FF40072FC
:101C20000021204604F00AFB9DB9744B224603F1C3
:101C30003C0153F8040B8B4242F8040BF9D11B888A
:101C40001380552384F8FE31AA2384F8FF31BDE8C0
:101C5000F883B5F5017F33D8691E694BB1F5817FF3
:101C6000B3F8460028BF6FF4817700F1010028BF68
:101C7000E919A51E0A0202F580771346834203F193
:101C800001032CBF00269EB2BB4225F8026FF5D19E
:101C900029B94FF6F87323804FF6FF7363805848D5
:101CA00003214FF6FF75C38A9A4204D89B1AFF2B73
:101CB00098BF24F81350013900F11800F3D1C6E79A
:101CC000B5F5027F3ED86FF40176354495BB2046CA
:101CD0000B224C492034FFF78FFF282304F8153CD2
:101CE0001823474F00264FF0210803FB0577022DEC
:101CF000ADD8B7F814900B2239462046FFF77CFF89
:101D00006673A673E67384F81080667484F8128094
:101D1000E67426756675A675E67584F8188066768D
:101D2000A4F81A90FB6843B13B69E36101352034A4
:101D30001837DCE72D01013DD2E7334B1B681B0A46
:101D40005B02F2E7314B9D4281D86FF402702C495F
:101D500000222B18A5F2072508468E8AB54202D329
:101D6000CE8AB54204D901321831032AF5D10222B4
:101D70001821022A01FB0200818AA3EB010303F16F
:101D8000020512D002696B02B2EB452F7FF65FAFFE
:101D9000D21AC1682046B2F5007F194428BF4FF41B
:101DA0000072BDE8F84304F003B803F5C003164A17
:101DB000C2331268B2EB032F4FEA03207FF647AF1E
:101DC000134B120A04F120016561236003F11443EF
:101DD000A2614FF4807203F52C13E060226103F6D8
:101DE000023363600B4BC4F8FC314FF40053A36023
:101DF000094BE361BDE8F84303F04ABD0000002051
:101E0000400000202B0000201C08002008010100D9
:101E10005546320A306FB10ABDD5B24F38B51546B6
:101E2000294B0A680C469A424AD103F114434A6886
:101E300003F52C1303F602339A4241D1D1F8FC2169
:101E4000224B9A423CD18B6823F4FF5323F01E03AC
:101E50009B049B0CB3F5005F32D1CA691C4B9A42BC
:101E60002ED10A692031E06803F078FDA36923B31D
:101E70002A68934207D044F263018B4200D80AB12A
:101E80004FF0FF332B60636944F26302934214D82E
:101E900003F00702012105EBD30391405A7AC8B23F
:101EA000114204D16968024301315A726960D5E96F
:101EB00000329A4201D303F0F1FC4FF4007038BDB8
:101EC0004FF0FF30FBE700BF5546320A306FB10AD2
:101ED000BDD5B24F08B5154B1860013803281FD87F
:101EE000DFE800F00F02151F012003F095FC1048F9
:101EF000104B1A8802809B788370BDE8084003F07D
:101F0000BBBC052003F088FC09480B4BF1E7192006
:101F100003F082FC094A064B1188927819809A7066
:101F200008BD03F095FC0548E7E700BF2408002042
:101F3000200800208D0200208A0200208702002055
:101F400008B503F099FB314B0BB1AFF3008003F000
:101F500043FCB0B12E4B83B92E4B2F4AD3F80C1152
:101F600091424FF0000244D02C4881421BD02C48B3
:101F7000814223D1C3F80C2103E0AFF30080002895
:101F8000EAD103F0FFFB03F02DFDFFF7C7FD0020B2
:101F900000F04CFE0220FFF79DFF00214FF0FF30C4
:101FA00001F070F8F9E70320C3F80C21FFF792FF66
:101FB00003F038FD0420FFF78DFFE2E7194CC3F86A
:101FC0000C010120226003F027FCFF2003F048FCF5
:101FD000154803F051FC2368B3F5FA7FFBD303F0F7
:101FE00037FC124803F048FC002003F039FC094B91
:101FF0000022C3F80C210E4B0BB103F0A1FB0D4BDB
:102000000BB1AFF3008003F0F7FBFEE70000000028
:102010000000000000400D40EF6926F0B40AE8F52A
:10202000EF6916F028080020840200202C08002008
:1020300041670000000000000120FFF74BBF0220B5
:10204000FFF748BF08B5144B1A6801321A60134AEB
:102050001268022A0CD86AB118681B68C0B2DB0586
:1020600048BFC043BDE8084048BFC0B203F0F8BB5A
:10207000032A00D008BD186810F0010007D0FF2027
:1020800003F0EEFB0648BDE8084003F0F5BB03F0A3
:10209000E7FB0448F7E700BF2808002024080020D9
:1020A000200800202C080020F0B51F4D89B00F46F5
:1020B000286801AC696804AE03C4297A35462170EA
:1020C0001A4C04F1080E2068083454F8041CB44675
:1020D0007445ACE803006646F5D1206806AEA179E8
:1020E000CCF800008CF80610A08801AC1049ACF8C0
:1020F0000400009103CC2C463860796025460832F4
:1021000003CDB54242F8080C42F8041C2C46F5D128
:1021100028681060A9889180BDF800109DF8022001
:1021200019809A7009B0F0BD807E0000897E0000A1
:10213000312E30000120704710B51C460B781E2B45
:1021400006D000232022052101F074FC204610BD9A
:102150000024FBE7F8B5069F14460D4618463A469C
:1021600000211E4604F06AF87CB14FF0E023D3F85A
:10217000F03DDB0700D500BE4FF0FF30F8BD28462C
:1021800004F500740135FFF745FDBC4206EB040180
:10219000F5D32046F2E70000F8B50D461E460024B0
:1021A000084F069B31199C4201D32046F8BD3A46A0
:1021B0002846FFF733FE0028F7D0013504F50074F8
:1021C000EFE700BF3008002010B50E4C227A22B194
:1021D0000420BDE81040FFF77DBE236883B10A4BA1
:1021E000197819B103201A70FFF774FED4E9003290
:1021F0009A4205D30420FFF76DFE03F0E9FAFEE7EB
:1022000010BD00BF3008002090020020024B0B6080
:102210004FF40073138070470901010001207047DB
:1022200000487047C802002000487047A8020020FC
:102230002DE9F04389B0B8B1032825D004285FD830
:10224000304B53F82040204603F0C0FD2E4AC3B265
:102250002046302B28BF3023E11881420AD010F8E5
:10226000014B22F8024FF8E7264B1B681A88264BD1
:102270005A80012301332448DBB25B0043F44073EE
:10228000038009B0BDE8F08368466C4603F07CFA31
:102290001D4E430084464FF00008DBB25FFA88F21F
:1022A0006245E7D2194A04AF02F110093D461068B1
:1022B000083252F8041CBE464A45AEE80300774691
:1022C000F5D114F8017B07F00F0220326A4412F8AE
:1022D000102CB2800D4A1068083252F8041CAE4629
:1022E0004A45AEE803007546F5D108AA08F1010891
:1022F000043602EB171717F8102C26F8022CCDE73E
:102300000020BEE794020020481000206F7E0000ED
:1023100038B5C3B2C0F30425820EC0F34C3003F1CC
:102320008043A940A840202A03F57C231C6881EA49
:10233000040100EA010080EA0400186006D9074B96
:1023400040F2BC51064A074803F0EAFD05D00123DC
:10235000054993408A6C1A42FCD138BDAE7E00001C
:102360003C7F0000CC7E000000C00F4038B5C3B2F7
:10237000C0F30425820EC0F34C3003F18043A94022
:10238000A840202A03F57C231C6881EA040100EAA6
:10239000010080EA0400186006D9074B4FF4B161D0
:1023A000064A074803F0BCFD05D0012305499340C8
:1023B0008A6C1A42FCD138BDAE7E00002F7F00002F
:1023C000CC7E000000C00F40030A084900F01F0047
:1023D00001EB830103238340DB4351E8002F1A40C4
:1023E00041E800200028F8D1704700BF68C00F40C6
:1023F00038B54FF40042DC4B00201A60DB4BD3F8B9
:10240000C02242F48032C3F8C022D3F8C02222F4A2
:102410000032C3F8C022D64BD64A1A6001F07AFEC9
:1024200001F0AAFE012001F09BFED34A0121D3480E
:10243000136823F0FF0343F07F031360FFF796FF59
:102440000121CF48FFF792FFCE4AD36823F01F0344
:1024500043F01303D3601368002BFCDA0021CA4851
:10246000FFF756FF4FF48870FFF7AEFF4FF484700C
:10247000FFF7AAFF40F21620FFF7A6FF4FF4067001
:10248000FFF7A2FF40F20E20FFF79EFF0321BF4897
:102490004FF48035FFF73CFF0121BD48FFF738FFBF
:1024A0000021BC48FFF734FF4FF48A70FFF78CFF20
:1024B0004FF48B70FFF788FF1820FFF785FF1A2075
:1024C000FFF782FF4FF48670FFF77EFF0121B248CD
:1024D000FFF71EFF40F20260FFF776FF0121AF48D1
:1024E000FFF716FF0021AE48FFF740FF40F20460FF
:1024F000FFF76AFF0121AB48FFF70AFF0021AA4856
:10250000FFF734FF4FF44170FFF75EFF07214FF2F2
:102510001400964CFFF7FCFE0021A448FFF726FFAD
:102520000021A348FFF722FF40F20270FFF74CFFA3
:102530000121A048FFF7ECFE01219F48FFF716FF9D
:1025400040F20220FFF740FF01219C48FFF7E0FE28
:1025500000219B48FFF70AFF4FF48070FFF734FF1C
:102560004FF48170FFF730FF4FF48270FFF72CFFBC
:102570004FF48370FFF728FF04219248FFF7C8FE4D
:1025800002219148FFF7F2FE1620FFF71DFF0221FE
:102590008E48FFF7BDFE02218D48FFF7E7FE40F2AF
:1025A0001250FFF711FF03218A48FFF7B1FE012106
:1025B0008948FFF7ADFE00218848FFF7D7FE40F2BB
:1025C0001450FFF701FF03218548FFF7A1FE012109
:1025D0008448FFF79DFE00218348FFF7C7FE40F2C5
:1025E0001650FFF7F1FE03218048FFF791FE01210D
:1025F0007F48FFF78DFE00217E48FFF7B7FE40F2CF
:102600000620FFF7E1FE4FF40270FFF7DDFE40F217
:102610000A20FFF7D9FE00217748FFF779FE002155
:102620007648FFF7A3FE0E20FFF7CEFE1220FFF73D
:10263000CBFE40F20670FFF7C7FE1020FFF7C4FE86
:102640001420FFF7C1FE4FF4E160FFF7BDFE01214A
:102650006B48FFF75DFE02216A48FFF787FE4FF4E3
:10266000A360FFF7B1FE1C20FFF7AEFE0C20FFF7C2
:10267000ABFE4FF48C70FFF7A7FE40F20230FFF77D
:10268000A3FE40F20630FFF79FFE40F21A50FFF71C
:102690009BFE40F20E60FFF797FE00215A48FFF7BD
:1026A00037FE00215948FFF761FE40F20A30FFF77C
:1026B0008BFE01215648FFF72BFE03215548FFF7FB
:1026C00027FE05215448FFF751FE40F20E50FFF758
:1026D0007BFE01215148FFF71BFE07215048FFF701
:1026E00017FE03214F48FFF741FE40F20250FFF76B
:1026F0006BFE01214C48FFF70BFE07214B48FFF70B
:1027000007FE03214A48FFF731FE4FF44070FFF700
:102710005BFE01214748FFF7FBFD07214648FFF715
:10272000F7FD03214548FFF721FE00214448FFF74C
:102730001DFE444801F052FD434801F071FD1B218C
:10274000002001F037FF1021012001F033FF182194
:10275000022001F02FFF1021032001F02BFF01F0D8
:10276000DFFD656772E000BF5422002000800D404D
:102770005822002000366E0100C00F40186C008007
:10278000143900140000084014EA000414680080A2
:1027900010E0004014FB00801CE0078024EB008068
:1027A0001C30008024F000801C3100801427008041
:1027B0001426008018FD0080186800803CEB008023
:1027C0003C69008018FA0080186400802479008039
:1027D000186E008028E6008028E007801C6A0080D0
:1027E0002CE600802CE007801C6C008028F600801E
:1027F00028F007801C6E008038F307803832008094
:1028000020E207802068008024E0078024260080E2
:1028100038EC008018F7008038EF008030F9008035
:1028200030F600803074008030EC008030E90080A9
:102830003067008028E9008028F90080207300803C
:102840000C200080607F00004C7F0000D4F87031C5
:1028500023F40043C4F87031D4F8703123F400033A
:10286000C4F87031236F43F40053236701F060FD17
:10287000D4F8A0302B43C4F8A030D4F8703123F042
:102880004043C4F87031D4F8A03043F40053C4F886
:10289000A03001F055FDC4F8E450D4F8E03023F046
:1028A000030343F00103C4F8E030D4F8E03043F40C
:1028B0000053C4F8E030D4F8E03023F00C03C4F83F
:1028C000E030D4F8E03043F48013C4F8E030D4F8BA
:1028D000E03043F40013C4F8E03001F01BFD656202
:1028E000236A0321344843F400532362FFF73EFD7B
:1028F00000213248FFF73AFD00213148FFF736FD4D
:1029000000213048FFF732FDD4F8603123F01F0377
:10291000C4F860312C4B1A6E22F070021A661A6EDF
:1029200022F00F0242F001021A661A6E22F46002CF
:102930001A661A6E22F4F81242F490121A661A6E8F
:1029400022F480721A661A6E22F080021A661A6EDB
:1029500022F080721A66A3F5A0235A6822F00702BB
:102960005A605A6822F038025A605A6822F0C0024F
:102970005A605A6822F440725A605A6822F44062DF
:102980005A609A6822F09F6222F4E0229A605A68A4
:1029900022F400525A605A6822F480425A605A69FE
:1029A00022F080525A615A6922F000525A61074B54
:1029B000074A1A6038BD00BF18720080143900142D
:1029C000186C00801C26008000C00F40F002002020
:1029D0000046C3238388C078C3F30A0300F00300D2
:1029E000022814D003281CD001280ED1022940F25D
:1029F000FF3208BF4FF480629A420ED24FF0E023BC
:102A0000D3F8F03DDB0700D500BE00207047022957
:102A100004D1B3F5007FF1D101207047402BFBD9E1
:102A2000ECE7022914BF40224FF480629A42F3D2AD
:102A3000E4E70A4430B5914200D330BD4C78052C10
:102A400006D18C7804F07F05E40900EB45052B5591
:102A50000C782144EFE70A44400092B2914201D839
:102A6000824201DB121A92B21046704738B5054611
:102A7000D41A9A420846A4B2A9883CBF04EB410488
:102A8000A4B2B4B1A14205D2914294BF521A5218D5
:102A900093B26B81994209D9EA882968C2F30E0280
:102AA00002FB031103F084F9012038BD5B1A9BB2CD
:102AB000F0E72046F9E7038942899BB2818892B208
:102AC000934236BFC2EB41029B1A9B189BB29942BC
:102AD0008CBF00200120704710B50289044643894D
:102AE00092B29BB2FFF7C2FF61890346024689B2E8
:102AF000A088FFF7B0FF6081184610BD70B505894A
:102B000004460E46ADB2FFF7D6FF10B1E079C0091A
:102B100013D0A3882846834210D9E288314623681F
:102B2000C2F30E0202FB003003F042F901222946F3
:102B3000A088FFF790FF2081012070BDC01A80B2ED
:102B4000E9E70023438103810120704708B50A4665
:102B500001890346808889B2FFF77DFF188108BD8F
:102B600008B50A4641890346808889B2FFF773FF9A
:102B7000588108BD2DE9F041194E05460024194F32
:102B80003278DFF87080E3B29A420DD9D8F800208D
:102B900012EB43130BD14FF0E023D3F8F03DDB07EA
:102BA00000D500BEBDE8F0819B1A07EB431301344A
:102BB000DB68284698473278E3B29A42E3D235225E
:102BC0000021094803F03AFB1022FF21074803F0D7
:102BD00035FB1022FF210648BDE8F04103F02EBB73
:102BE00080110020687F0000881100208D110020D6
:102BF0009D1100208411002070B50C460546164634
:102C0000486900F0D9FD6369324628460121BDE8D4
:102C1000704018470346034A10780BB102F0AEBA71
:102C200002F0C2BAEC020020704770472DE9F84369
:102C3000224F04463B78FF2B3DD13522002120480E
:102C400003F0FCFA1F48FFF77CFF1F4B1F4A204E82
:102C50001A60204B23B13046AFF300801E4B186042
:102C600032780025DFF87480DFF86C90EBB2934285
:102C70000ED2D9F8002012EB43130CD14FF0E02311
:102C8000D3F8F03DDB0700D500BE0020BDE8F88397
:102C90009B1A08EB43135B68002BEFD00135984774
:102CA0003278EBB29A42E1D220463C7002F01AFA36
:102CB000204602F063FA0120E8E700BFEC020020A2
:102CC00088110020E0020020BC100020DC0200205F
:102CD000801100200000000084110020687F0000A7
:102CE0002DE9F043437885B004460D46023B042BA2
:102CF00000F28580DFE813F0740005009900A10060
:102D0000D900704F0026DFF8C8813A78DFF8C49107
:102D1000F3B2934280F09A80D9F8002012EB43136B
:102D200040F0978001363A78F3B29A42F0D2664F7B
:102D30003B78580726D53B786FF382033B7000231E
:102D4000CDF80630CDF80A30ADF80E3023788DF886
:102D5000043005238DF805305C4BD3F8008008F172
:102D60000406002D7DD0304601A9FFF7C7FE0646B8
:102D7000002E40F084804FF0E023D3F8F03DD907D7
:102D800000D500BE3B79DA0727D50023CDF8063001
:102D9000CDF80A30ADF80E3023788DF804300323D7
:102DA0008DF8053063680293484B1E68341D002D72
:102DB0006DD1336828469847204601A9FFF79EFE4B
:102DC0003368044601209847002C66D14FF0E02379
:102DD000D3F8F03DDB0700D500BE05B0BDE8F083B9
:102DE000394B00211A786FF300021A701A786FF3CA
:102DF00041021A7059701A7861F382021A70334BCB
:102E00001F683E1D002D56D13B6828469847304626
:102E10002146FFF773FE3B68064601209847002EC7
:102E2000D4D02A46617820783CE0274B1A78D7071F
:102E3000D3D51A7842F00402E0E7234A1378DE077C
:102E4000CBD513786FF382031370D8E79B1A08EB86
:102E50004313DB69002B3FF465AF61682078984726
:102E600060E7D8F800302846984701A93046FFF7B8
:102E700045FED8F8003006460120984778E72A46F4
:102E80009DF805109DF80400FFF7CEFE7AE7204676
:102E900001A9FFF733FE044696E72A469DF8051080
:102EA0009DF80400FFF7C0FE97E7074AD378013387
:102EB000DBB2D370A3E730462146FFF71FFE06467C
:102EC000ADE700BF8011002088110020BC10002059
:102ED000687F00008411002038B50E4B0C461D7829
:102EE0008B7813F0780F08D04FF0E023D3F8F03D43
:102EF000DB0700D500BE002038BD074B204699787F
:102F0000FFF768FD0028EFD021462846BDE838408D
:102F100002F0B4B9EC020020881100202DE9F0473E
:102F200081460C4690469A460025DDE90867A8458B
:102F300001DC01200FE06378052B04D1E37803F076
:102F40000303534509D04FF0E023D3F8F03DDB07EE
:102F500000D500BE0020BDE8F08721464846FFF7B7
:102F6000BBFF0028EFD0A3780135DA0914BF3B700E
:102F7000337023781C44DAE770B501F07F06134CF8
:102F8000134804EB4604007804EBD11494F8255060
:102F90002034ED0708D54FF0E023D3F8F03DDB07F0
:102FA00000D500BE002070BD657945F00105657152
:102FB00002F0FCF90028F6D1627960F30002627138
:102FC000627960F382026271E5E700BF8811002038
:102FD000EC02002001F07F02044B03EB420303EB01
:102FE000D11191F8250000F00100704788110020F0
:102FF0000C4B10B50C46187802F000F90A4904F0A1
:103000007F0301EB430101EBD41191F8253043F02C
:10301000020381F8253091F8253043F0010381F84F
:10302000253010BDEC020020881100200C4B10B59B
:103030000C46187802F000F90A4904F07F0301EB0E
:10304000430101EBD41191F825306FF3410381F86E
:10305000253091F825306FF3000381F8253010BD3D
:10306000EC0200208811002001F07F02044B03EBEA
:10307000420303EBD11191F82500C0F340007047E3
:1030800088110020B04B2DE9F04F1B7889B0FF2B41
:1030900000F0C782AD4CAE4B00201E68354655F897
:1030A000043B984705A92846FFF716FD05463368F7
:1030B00001209847002D00F0B4829DF81530013BA7
:1030C000072B00F2F582DFE813F008001200EB0294
:1030D000B902D9021E007E02E4029DF81400FFF737
:1030E00049FD00F061FB9DF81830A370D3E79DF80F
:1030F0001400FFF73FFD00F057FB964B002BCAD0A2
:10310000FEF79DFFC7E7E378013BDBB2E370E378AE
:1031100003F0FF00002BBED123789DF8145043F03C
:103120000103237094F8253060F3000384F8253000
:1031300094F8253060F3820384F8253094F8263023
:1031400060F3000384F8263094F8263060F382039D
:1031500084F8263000F030FB9DF8182002F0600360
:10316000602B07D14FF0E023D3F8F03DDD072AD5DF
:1031700000BE28E0402B0BD1774820B300F01CFBA9
:1031800006AA01212846AFF30080002883D11AE067
:1031900002F01F02012A00F09381022A00F0C2818E
:1031A000002ADFD1202B23D19DF81C300F2B0AD809
:1031B00023446A4A5B79127893420FD2684A1168B5
:1031C00011EB43110FD19DF81400002102F016F805
:1031D00080219DF8140002F011F85CE7F3D19B1AEE
:1031E000604901EB431106AA2846FFF705FDCCE72D
:1031F000002BB7D19DF81930092BB3D801A252F892
:1032000023F000BF9F4400008D4400006541000092
:1032100079440000654100002D420000C3430000D6
:1032200065410000474200005142000006A800F03E
:10323000C9FA9DF81A10284602F0D8F8237843F00E
:103240000203237027E763788DF81230012330E101
:103250009DF81A90637899453DD063785BB1002161
:10326000284601F0BBFF284602F070F8A6782846F1
:10327000FFF780FCA670B9F1000F00F09C8009F107
:10328000FF30C0B2FEF7D0FF10B14378022B08D058
:103290004FF0E023D3F8F03DDF077FF563AF00BECA
:1032A00060E7C37900F10906DFF8B0B0C3F380121C
:1032B000C3F340131B0143EA4213227822F0300289
:1032C000134323704388C3180193019BB34209D869
:1032D000254B002B6CD184F8019006A9284600F0FC
:1032E00025FAD8E673780B2B09BFF37801230293F4
:1032F000337814BF0293F6187378042BC8D1019B5E
:103300004FF0000A9BF800109B1B9AB2144B5FFA17
:103310008AF7B94212D9196811EB4711B8D0D1F820
:103320001080284631460392C04708288046039AF9
:103330000B4B34D9824232D3002220E0791A09485B
:1033400000EB4111EBE700BFEC02002088110020E8
:10335000BC1000203F300000000000008011002061
:1033600084110020687F000039300000B1780132FC
:103370000B4454FA83F35979FF2989D15F71D3B291
:1033800002999942F2D83B4631464246B248FFF78D
:1033900050FB9BF800304644BB4296D278E70AF1D6
:1033A000010A9BF800105FFA8AF08142AFD26FE702
:1033B000FEF742FE8FE7A94B002B8CD0FEF73FFEB5
:1033C00089E7BDF81A301A0AD8B2531E0E2B3FF601
:1033D000FAAE01A151F823F0154400003F4400006B
:1033E00057440000C7410000C74100006B44000083
:1033F0003F440000C7410000C7410000C741000032
:10340000C7410000C7410000C7410000C74100009C
:1034100027440000FEF704FF1223024606A92846AF
:1034200000F096F9B1E68E4B002B3FF4CCAEAFF333
:103430000080024600283FF495AE4388EEE7022A5A
:1034400002D1FEF7F1FEF4E7864B002B3FF4BBAE52
:10345000AFF30080EDE7BDF81C10FEF7E9FE024671
:1034600000283FF4B0AE0378D8E77F4B002B3FF441
:10347000AAAEAFF30080F2E7BDF81A30012B7FF45B
:10348000A2AE237843F00803237026E7BDF81A3074
:10349000012B7FF498AE23786FF3C303F4E723780E
:1034A000C3F340129B0803F002031343ADF812303C
:1034B00002230DF1120206A9284600F049F9EAE5B7
:1034C0009DF81C300F2B3FF67EAE2344674A5B7994
:1034D0001278934222D2664A116811EB43113FF4ED
:1034E00072AE06AA2846FFF787FB00287FF4D3AD0B
:1034F0009DF8183013F060067FF465AE9DF8193022
:103500000A3B012B3FF65FAE00F056F99DF81930EB
:103510000A2B7FF4E2AE8DF8126097E67FF453AE8B
:103520005449DEE79DF81C1011F0780F7FF41AAEB5
:1035300001F07F024D4804EB4202007802EBD11209
:10354000527D824213D24A48066806EB4216D3B92E
:103550009DF8193003F0FD02012A18D0002B7FF4EA
:1035600001AE2846FFF780FDADF81200A0E705D1B7
:10357000404E002BECD006AA314635E6002B7FF4F6
:1035800022AE1E46E4E7002E3FF41DAEF3E7BDF881
:103590001A2022B9012B284612D1FFF747FD002E31
:1035A0003FF479AD314606AA2846FFF725FB0020F7
:1035B00000F002F994F82630DE073FF56CAD8CE69A
:1035C000FFF716FDEBE79DF8181001F07F0504EBFF
:1035D000450303EBD11393F825006FF3000083F844
:1035E000250093F825006FF3820083F825003DB98C
:1035F000079B9DF819209DF8140000F0F1F84AE5AA
:103600005A7D1A4B1B789A420ED2194B1B6813EB4A
:1036100042130BD14FF0E023D3F8F03DDC0700D587
:1036200000BE09B0BDE8F08FF4D1124B9D699DF842
:103630001920079B9DF81400A8472CE52378D8078C
:103640007FF529AD0C4B002B3FF425AD2078C0F35E
:10365000C000AFF300801EE59D1100203F30000048
:1036600000000000000000000000000080110020A9
:1036700084110020687F0000000000002378D90733
:103680007FF509AD0F4B002B3FF405ADAFF3008084
:1036900001E5069B002B3FF4FEAC07989847FAE43F
:1036A0002379DA077FF5F7AC0698FFF7BEFAF2E464
:1036B0004FF0E023D3F8F03DDB077FF5ECAC00BE24
:1036C000E9E400BF00000000124B70B5998905467F
:1036D000DA8993F900008C1AA4B2402C28BF402448
:1036E00000280EDA914212D0996822460A4802F068
:1036F0005FFB8021084A23462846BDE87040FFF75B
:103700003BBC91424FF00001F4D10A46F3E780211F
:103710000022F0E700120020C0110020C94300235E
:1037200001F080011A46FFF727BC704730B4074C00
:1037300005460B4608682246496803C2002228460F
:10374000C4E90222197830BCFFF7E8BF001200205C
:10375000F8B5144E0C460546086837464968B2600D
:1037600003C70021F181E1888B4228BF0B46B3815A
:10377000E18889B14BB142B94FF0E023D3F8F03D75
:10378000DB0700D500BE002005E02846FFF79CFFC0
:103790000028F1D00120F8BD21782846FFF7BEFFB0
:1037A000F6E700BF0012002014220021014802F0B9
:1037B00045BD00BF00120020014B1861704700BFDB
:1037C0000012002010B50246044C006851682346E0
:1037D00003C30023C4E9023310BD00BF0012002060
:1037E00070B5284C1E46C90905462378B1EBD31F96
:1037F00013D03EB14FF0E023D3F8F03DDB073FD4C8
:10380000002070BD2146FFF790FF23691BB12246BF
:103810000321284698470120F3E794F90030A06877
:10382000002B05DB0028EBD03246174902F0C0FA26
:10383000E389A268334432449BB2A260E288E38108
:103840009A4201D03F2E17D8236933B921782846F0
:10385000FFF764FF0028DED1CCE70221094A2846A1
:10386000984701460028F1D1284601F0C7FC802185
:10387000284601F0C3FCCEE72846FFF725FFE9E71D
:1038800000BEBDE700120020C0110020034B43F62C
:1038900002229A87002283F83E20704714220020DB
:1038A000104B30B402249A6B83F82C10996883F87B
:1038B00030408A1A93F83C409A6224B942F20505D6
:1038C00083F83E409D8751B14AB11A7BD20930BC82
:1038D00014BF93F82E1093F82F10FFF789BB30BC5C
:1038E000704700BF1422002038B5154B0546154C13
:1038F00073B1607BAFF3008050B942F2077384F874
:103900003E0001212846A387BDE83840FFF7C8BF25
:10391000A26B2846A36894F82F109B1A0A4AB3F5A5
:10392000805F28BF4FF480539BB2FFF725FB30B96F
:103930004FF0E023D3F8F03DDB0700D500BE38BDE3
:1039400000000000142200201412002070B5274C43
:1039500086B00546E28AA36822B152BA92B2B3FB9E
:10396000F2F292B2A06BD4F811101B1A09BAB3F597
:10397000805FB0FBF2F628BF4FF4805302FB1602C3
:10398000314400931A4B607BFEF7E4FB031E08DA18
:1039900001212846FFF77AFF06B0BDE87040FFF727
:1039A0007FBF94F82E1011D10722CDF80E3003A856
:1039B0008DF810101946ADF812308DF80C508DF8B6
:1039C0000D200593FFF78CF906B070BD9BB2084A35
:1039D0002846FFF7D1FA0028F6D14FF0E023D3F8BC
:1039E000F03DDB07F0D500BEEEE700BF142200205B
:1039F000141200208368C28A23B9003A18BF01223A
:103A000050007047C17B282904D1017BC90906D128
:103A1000022070472A2902D1017BC909F8D13AB1A5
:103A200052BA92B293422CBF00200120400070474E
:103A300001207047044880F83C1080F83D2080F851
:103A40003E300120704700BF142200204022002198
:103A5000014802F0F3BB00BF1422002040220021E5
:103A6000014802F0EBBB00BF1422002073B54B7974
:103A70000546082B0ED18B79062B0BD1CB79502B19
:103A800008D1162A09D84FF0E023D3F8F03DDA0721
:103A900000D500BE002002B070BD8B78124C84F8B7
:103AA0002D3004F12E030E78019304F12F033144DD
:103AB000009302231A46FFF731FA0028E3D00023CF
:103AC000224694F82F10284684F830301F23FFF741
:103AD00053FA28B94FF0E023D3F8F03DDB0701D4C7
:103AE0001720D8E700BEFBE714220020012973B598
:103AF0000546144602D0012002B070BD137803F0D1
:103B00007F02022A47D16278012A44D16288002AC2
:103B100041D1A3883D4CDBB294F83020042A03D174
:103B20001946FFF765FAE6E794F82E10994218D186
:103B3000022AE0D1A26BA3689B1A04F12002A362BF
:103B4000032384F830300D23FFF716FA0028D2D172
:103B50004FF0E023D3F8F03DDB0700D500BE002096
:103B6000CAE794F82F609E42C5D1002AC3D13146DE
:103B7000FFF730FA0028BED131462846FFF774FA25
:103B80000028B8D10023214A94F82F10284684F841
:103B900030301F23D8E703F06003202BDFD1637898
:103BA000FE2B15D0FF2BDAD16388002BD7D1E1880B
:103BB0008AB2002AD3D1154B28469987214683F82B
:103BC000302083F83E20C3E90D22FFF7AFFD92E7D6
:103BD0006388002BC3D1E388012BC0D18DF8073057
:103BE0000B4B1BB1AFF300808DF807009DF8073039
:103BF000002BB4D0013B0DF10702214628468DF879
:103C000007300123FFF7A4FD75E700BF1422002051
:103C1000000000002DE9F043A54C8FB005461E467C
:103C200094F83070012F00F09181032F00F01C8276
:103C3000002F40F0988194F82F308B4240F0AB81F8
:103C40001F2E03D122689B4B9A4210D0042394F874
:103C50002E10284684F83030FFF7CAF994F82F1058
:103C60002846FFF7C5F900200FB0BDE8F083924B5E
:103C7000E27B23626368282AA66884F82C70C4E972
:103C800009374FF00103C4E90D6784F830300BD1D8
:103C90002046FFF7AFFE0146D8B9002E40F0608104
:103CA000022384F830305EE12A2A0AD12046FFF749
:103CB000A1FE014668B9002EF2D02846FFF714FE97
:103CC00051E1D6B1237BDB0917D1B6F5805F04D96A
:103CD00001212846FFF7E4FD45E1B3B2774A2846C3
:103CE000FFF74AF9002840F03E814FF0E023D3F877
:103CF000F03DDB07B7D500BEB5E7252A94F80D8067
:103D000008D8192A14D8032A00F0E480122A00F0F7
:103D100096805AB394F83C30002BD9D1A38E674AD1
:103D20006749607BFEF708FA002880F20781CFE739
:103D30001A3A0B2AEED801A353F822F07B4E00006A
:103D4000874D0000154D0000154D0000A34D0000EB
:103D5000154D0000154D0000154D0000154D0000DB
:103D6000F74D0000154D0000B74D00004046FEF72E
:103D7000E1F9002840F0E58094F83C30002BC9D1EF
:103D8000FFF784FDC6E74F4B002B00F0DA80E17CA3
:103D90004046C1F3400301F001020909FEF73EFA73
:103DA000E7E7494B002B00F0CC80227D4046E17CC8
:103DB000AFF30080DDE704AA05A94046FEF726FA26
:103DC000059BBDF81020002BD6D0002AD4D0013B93
:103DD00012BA3A4908201BBAC1E90032A368002B85
:103DE0003FF476AF8342354A94F82E1028BF03463D
:103DF00063639BB273E7002305AE0DF10E0204A9C5
:103E000005934046C6E90133FEF700FA049A002AFA
:103E1000B2D0BDF80E30002BAED012BA5BBA08217A
:103E200006920222ADF81E308DF81710234B8DF844
:103E30001C2096E8070083E807000C20CEE71F232C
:103E400022494FF02036102209A805AFCDE905130D
:103E50002021CDE9076602F0F1F90DAB09AA07A907
:103E600040460D96FEF720F9144E0FCF0FC60FCF28
:103E70000FC63B6824203360B0E7059B03F40003C2
:103E800043F003030593124B7BB14046AFF3008030
:103E900080F001009DF8163060F3C71304208DF800
:103EA0001630059A054B1A6098E70120F0E700BF2D
:103EB00014220020555342435553425314120020FC
:103EC000232200201D3200000000000000800202BA
:103ED0000000000094F83C601222002105A894F82C
:103EE0003E7006F00F0694F83D9002F0A7F9F0231B
:103EF0008DF8166005AE8DF821708DF814300A2308
:103F00008DF820908DF81B30734F0FCE0FC733689C
:103F10003B80724B23B91220A38784F83E305DE7C3
:103F20004FF48052A7F110014046AFF30080002308
:103F30000028A38784F83E30FFF6ECAE00287FF41B
:103F40004DAFA368002B3FF4ABAEC1E6E37BA06BA3
:103F5000282B22D13044636B9842A063BFF4A0AEFB
:103F60002846FFF7F3FC94F83030022B13D194F875
:103F70002E102846FFF778F868B9A368A26B94F86A
:103F80002E10934240F29980207BC00900F095806A
:103F90002846FFF72DF8012066E62A2B45D1E28A54
:103FA0002AB152BAA36892B2B3FBF2F39AB2D4F830
:103FB0001110494F09BA00963B46B0FBF2FC02FBD8
:103FC0001C026144607BFEF7E7F8011E05DAA36B73
:103FD0003344A363FFF75AFC7AE68E421DD9761A62
:103FE00041B1A36B3246384613FA81F33944A363D7
:103FF00002F00AF9002194F82F30072205A8CDF825
:104000001610ADF81A108DF814508DF815208DF893
:1040100018300796FEF764FEA5E7A36B626B334486
:104020009342A363BFF43CAE47E6237B3044DB09F5
:10403000A0630CD1A38E04F10F01274A607BFEF729
:104040007BF8002803DA39462846FFF729FCD4E933
:104050000D329A42BFF424AE4FF0E023D3F8F03D86
:10406000DA0780D500BE7EE794F82E308B427FF4CD
:104070007AAF0D2E7FF477AFE37B282B09D02A2B64
:1040800014D0174B53B104F10F01607BAFF30080E4
:1040900004E0144B13B1607BAFF300800023124A9D
:1040A00094F82F1084F830301F2318E60F4B002BA4
:1040B000F4D0607BFEF788F8F0E79B1A28460C4A9C
:1040C000A362032384F830300D23FEF755FF002848
:1040D0007FF461AF09E600BF141200200000000069
:1040E000000000000000000014220020C931000080
:1040F00034220020044BD3F87032DB0602D4034B89
:10410000186870470248704700800D405822002010
:1041100000366E0108B528B10D4BC1210D4A0E487D
:1041200001F0FEFE0D4B4FF08042C3F85821D3F84A
:104130007022D103FBD54FF48032C3F85421D3F859
:1041400050211204FBD54FF48032C3F8582108BD2A
:10415000887F000023800000977F000000800D40D2
:10416000044B102210B9C3F874227047C3F87822A8
:10417000704700BF00800D40034AD2F8703243F010
:104180000103C2F87032704700800D40104AD2F827
:10419000803043F00303C2F8803002F5F212D2F807
:1041A000403143F00203C2F840310A4B00BF013BEB
:1041B000FCD1094A0120D2F8203123F4F85323F02E
:1041C000010343F4B85343F00103C2F820317047B0
:1041D00000C00F40801A060000800D400F4A03798E
:1041E00011689B0321F4E0319BB20B4343F480330D
:1041F00013601168036821F4415103F07F0321F03B
:104200003F010B4343F4005313601368002BFCDAA7
:10421000136823F480331360704700BF00800D40A3
:10422000184B027B196B920321F4E03192B20A43DE
:1042300042F480321A63196B027821F4405102F083
:10424000010221F001010A4342F400521A6342685C
:1042500022F040421A65826822F040421A66428A81
:10426000C189C2F30E0242EA0142017CC90389B24C
:104270000A431A641A6B002AFCDA1A6B22F48032A1
:104280001A63704700800D400F4A437811699B0301
:1042900021F4E0319BB20B4343F480331361116985
:1042A000037821F441515B0021F0020103F0020385
:1042B0000B4343F4415313611369002BFCDA136978
:1042C00023F480331361704700800D4008B50E4B16
:1042D0001A69920414D51A6942F040021A610B4B14
:1042E00001201A6B22F000421A631A6B22F08042FE
:1042F0001A6300221A601A6B42F4C6121A6308BDD0
:104300000348FFF7C1FFEAE700800D4000900D4031
:1043100021800000014B00221A62704700800D408E
:10432000024B4FF480521A67704700BF00800D4067
:10433000024B4FF48052C3F8A020704700800D401C
:10434000024B4FF48052C3F8E020704700800D40CC
:10435000C0F30B41024600F01F0001F1804101F55E
:10436000582108B50B68C340D80718D50B6813F45B
:10437000404F16D1FFF7BEFE0B68D90310D4794B1E
:104380009A425AD02FD8A3F5A0039A4200F0E780B2
:1043900009D80D2A41D0A3F580139A4244D00020B9
:1043A00008BD0020E8E7704B9A42F8D16F4B07EE4A
:1043B000900A93ED146AB8EE677B93ED185AB8EE45
:1043C000466B1B6BB8EE455BDB0727EE067B4CBFED
:1043D00016231423434387EE056BBCEEC66B16EE23
:1043E000100A1844DCE7624B9A4200F0B2800FD802
:1043F000604B9A4265D003F580039A42CFD15B4B64
:10440000D3F8E03003F003035B4A52F82300C7E718
:104410005A4B9A42C3D15A48C2E7544B1B6803F027
:104420007F0343435808BBE7504B1B6913F0020F4F
:104430000CBF142316235843B2E74C4B07EE900AE7
:104440001A6FB8EE675B93ED207A93ED246A02F061
:104450007F02B8EE477BB8EE466B25EE075B85EE34
:10446000067BBCEEC77B17EE101A00FB02101A6F1A
:1044700002F4C012B2F5002F16D0B2F5801F01D0A1
:10448000A2B98008D3F870313E4A1340B3F5000F4B
:1044900086D012D8002B83D0B3F5004F57D03A4BBB
:1044A00040F22B41394A05E04008EBE7364B40F239
:1044B0001741364A364801F033FD9342EFD1800868
:1044C0006EE72A4B07EE900AD3F8A020B8EE675BA0
:1044D00093ED2C7A93ED306A02F07F02B8EE477BC1
:1044E000B8EE466B25EE075B85EE067BBCEEC77B20
:1044F00017EE101A00FB0210D3F8A02002F4C0122D
:10450000B2F5002F18D0B2F5801F01D0B2B98008E3
:10451000D3F8703103F04043B3F1004F3FF440AFA4
:1045200011D8002B3FF43CAFB3F1804F0FD0164BA6
:1045300040F26C41154ABDE74008E9E7124B4FF4E1
:104540008B61124AB6E7B3F1404FB8D0EFE74008AD
:1045500026E7064BD3F8E030C3F3810354E7034B5F
:104560001B6A63E70D0070000D00300000800D40F5
:104570001400E0000D00A000008000001500E00025
:1045800040787D0100808000FA7F000010800000EC
:10459000977F0000044BDB68DB0702D40348FFF77A
:1045A000D7BE0348704700BF00C00F400D00100089
:1045B00000366E0110B5C000094CBF2301F03F0169
:1045C000D4F800218340814022EA03028023834003
:1045D00011431343C4F80031C4F8001110BD00BFEB
:1045E00000800D4010B504461348FFF7B1FE032CC0
:1045F0001FD8DFE804F0020C1218104BD3F800317A
:1046000003F03F03B0FBF3F01223584310BD0B4BF4
:10461000D3F80031C3F30523F4E7084BD3F8003196
:10462000C3F30543EEE7054BD3F80031C3F305634D
:10463000E8E70020E8E700BF0D00300000800D40F3
:1046400010B5204C6069A36910F000701AD003F413
:104650004053B3F5805F07D0B3F5005F0ED07BB950
:104660001948FFF775FE01E0FFF744FD154B5B6944
:10467000C3F3C2630133B0FBF3F00DE01348F0E77E
:104680000020F3E703F44023B3F5002F15D004D83E
:104690006BB1B3F5802F0FD010BDB3F5402FFBD118
:1046A0000D20FFF755FE236903F00703E2E70748F3
:1046B000BDE81040FFF74CBE0220BDE81040FFF7F8
:1046C00091BF00BF00C00F400D0010000D00300072
:1046D00008B5FFF7B5FF044B5B69C3F382230133D1
:1046E000B0FBF3F008BD00BF00C00F4008B5FFF7F6
:1046F000EFFF044B5B69C3F301230133B0FBF3F01D
:1047000008BD00BF00C00F4010B5084CE3695B0650
:1047100008D5FFF7EFFCE36903F03F030133B0FB7B
:10472000F3F010BDFFF7E2FFF5E700BF00C00F4058
:1047300010B504461348FFF70BFE032C1FD8DFE823
:1047400004F0020C1218104BD3F8F03003F03F03C2
:10475000B0FBF3F01223584310BD0B4BD3F8F030ED
:10476000C3F30523F4E7084BD3F8F030C3F3054354
:10477000EEE7054BD3F8F030C3F30563E8E700201C
:10478000E8E700BF0D00100000800D4010B50C4C94
:1047900063695A0610D563691B0609D50120FFF726
:1047A000C7FF6369C3F302430133B0FBF3F010BDED
:1047B0000220FFF717FFF4E7FFF742FFF1E700BF22
:1047C00000C00F4008B51B2863D8DFE800F01111C6
:1047D00015191D210E252A2C313335494B4D5254C4
:1047E00056585A5C5E60373B3F434FF4004008BD6B
:1047F000BDE80840FFF76CBFBDE80840FFF7C6BF43
:10480000BDE80840FFF772BFBDE80840FFF77CBF76
:10481000BDE80840FFF76EBC0D20BDE80840FFF77B
:1048200097BD1D48F9E70020BDE80840FFF780BFAD
:104830000120F9E70220F7E70320F5E7BDE808408B
:10484000FFF7A8BEFFF7A6FE8008D0E7FFF7A2FE9D
:10485000C008CCE7FFF79EFE0623B0FBF3F0C6E7E7
:104860000E48DAE70E48D8E70020BDE80840FFF719
:10487000B9BE0120F9E70220F7E70320F5E7094870
:10488000CBE70948C9E70948C7E70948C5E7094828
:10489000C3E70020ABE700BF0D0010000D002000B3
:1048A0000D0030000D00E0001400E0001500E000F5
:1048B0000D0070000D00A0001F2908B505D9084B98
:1048C0007521084A084801F02BFB012303FA01F186
:1048D00012B9C0F8881008BDC0F88410FBE700BF0B
:1048E00039800000C88000004380000030B50124FA
:1048F000C3690F2902F1FF3204FA01F488BF1039AD
:1049000023EA0403C36194BF00F10C0300F1100318
:10491000042A0BD8DFE802F0030B151D2300480022
:1049200003211A68814022EA01021A6030BD4C005E
:1049300003201A680121A04022EA0002A1400A4394
:10494000F3E74C0003201A680221A04022EA00028B
:10495000F4E74900032218688A400243E5E7C36987
:104960001C43C461E2E70000F8B5174604460E4652
:10497000254A002352F8041B8C4208D001330B2B2C
:10498000F8D1224B3C21224A224801F0C9FA052BDA
:1049900012D901256269B54022EA0502EB43626142
:1049A0003A7842BB626813406360BA783146204669
:1049B000BDE8F840FFF79ABF174A32F913305A1C86
:1049C000E7D0B3F5006F4FEA132103F01F0005D3C2
:1049D000124B40F2DE51124A1248D6E7124A02EB5D
:1049E00081020321814052E8003F0B4342E800303E
:1049F0000028F8D1CDE77A7831462046FFF75CFFF2
:104A000063681D436560D0E708810000988000005E
:104A1000E880000043800000FA800000BB800000B6
:104A2000D6800000CC7E000068C00F4008B5436A05
:104A3000DB074CBF034B044B1B689847BFF34F8FFA
:104A400008BD00BF602200205C22002008B5074B93
:104A5000596831B9064B40F60D11064A064801F077
:104A60005FFA0648BDE80840FFF7E0BF6422002077
:104A700099810000458200004381000000403940D8
:104A800008B5074B996831B9064B40F61611064A2E
:104A9000064801F045FA0648BDE80840FFF7C6BFE2
:104AA00064220020B28100002D82000043810000BA
:104AB0000080394008B5074BD96831B9064B40F63C
:104AC0001F11064A064801F02BFA0648BDE80840C7
:104AD000FFF7ACBF64220020CB81000015820000EC
:104AE0004381000000C0394008B5074B196931B94E
:104AF000064B40F62811064A064801F011FA06480E
:104B0000BDE80840FFF792BF64220020E481000066
:104B1000FD8100004381000000003A4008B5044ACE
:104B2000044B51685B6804489847BFF34F8F08BD3A
:104B30009C220020782200200040184008B5044A3A
:104B4000044B91689B6804489847BFF34F8F08BD9A
:104B50009C220020782200200080184008B5044ADA
:104B6000044BD168DB6804489847BFF34F8F08BDFA
:104B70009C2200207822002000C0184008B5044A7A
:104B8000044B11691B6904489847BFF34F8F08BD58
:104B90009C220020782200200000194008B5044A19
:104BA000044B51695B6904489847BFF34F8F08BDB8
:104BB0009C220020782200200040194008B5044AB9
:104BC000044B91699B6904489847BFF34F8F08BD18
:104BD0009C220020782200200080194008B5044A59
:104BE000044BD169DB6904489847BFF34F8F08BD78
:104BF0009C2200207822002000C0194008B5044AF9
:104C0000044B116A1B6A04489847BFF34F8F08BDD5
:104C10009C2200207822002000001A40034670B534
:104C20001868C605FCD41868850502D54FF40070D5
:104C300098601A4E1C697068F56824F07F64000360
:104C40002D0424F47F2480B205F47C1528433568B4
:104C5000AD0505F07C652843204318611868C4053C
:104C6000FCD41868800502D54FF4007098603F208E
:104C7000014098605960196B41F00101196319688E
:104C8000C905FCD4186810F4007004D04FF400710A
:104C900043F6081099601B6C136070BDC0220020A1
:104CA0002DE9F0410C4628B92F4B92212F4A30486C
:104CB00001F036F900294DD02E4A02F1700353E875
:104CC000003F43F4405302F1700141E80036002EEA
:104CD000F3D1294F96203146DFF8A8803D4620A326
:104CE000D3E90023E4FB005128463D4600F0AAFE2C
:104CF00001383146C8F80000642019A3D3E9002325
:104D0000E4FB0051284600F09DFE1C49431E45006F
:104D10008C4642F210703146C8F80430E4FB00C102
:104D20000FA3D3E90023604600F08CFE0138314622
:104D30002844C8F80800282009A3D3E90023E4FB8D
:104D40000071384600F07EFE01382844C8F80C0097
:104D5000BDE8F0810A4B9421044AA8E7AFF3008034
:104D600000CA9A3B000000005D820000FD82000046
:104D70006A82000000C00F4000CA9A3B0065CD1D4A
:104D8000C0820000C022002008B528B90C4BB02119
:104D90000C4A0D4801F0C4F800220C4BC3E9002274
:104DA000C3E902220A4A02F1700353E8003F23F4E8
:104DB000405302F1700040E800310029F3D108BDF2
:104DC0005D820000F08200006A820000C0220020A4
:104DD00000C00F4007B528B9074BC221074A084851
:104DE00001F09EF8002301AA0193FFF717FF019835
:104DF00003B05DF804FB00BF5D820000D3820000B9
:104E00006A82000070470000314A324908B5D2F882
:104E1000883043F47003C2F888300B892E4A23F09F
:104E200001031B041B0C0B81138923F001031B04DA
:104E30001B0C13810B88580705D50B8823F004033E
:104E40001B041B0C0B8013885B0705D5138823F00C
:104E500004031B041B0C1380204B1A68900430D5EC
:104E60001F4A5A604FF6FF729A601A6822F0A00239
:104E700042F020021A604FF0E0231A69D10703D5EF
:104E80001A6922F001021A61114B5A69920315D472
:104E90005A6912F4003211D1BFF34F8FBFF36F8FF5
:104EA000C3F85022BFF34F8FBFF36F8F5A6942F49C
:104EB00000325A61BFF34F8FBFF36F8FFFF7A2FF2E
:104EC00008BD4CF220525A604DF62812C9E700BFC7
:104ED00000ED00E000800B4000000D4000C00B40E2
:104EE00020C528D94FF40013DB691B695B6818479C
:104EF00010B44FF40014E4692469A468A4465DF872
:104F0000044B604710B44FF40014E4692469246929
:104F1000A4465DF8044B60474FF40013DB691B693E
:104F2000DB681847F0B50C462B49064685B002EB06
:104F300044036000203301EB43135D686F0609D41E
:104F40005D682D0704D45B68C3F340179B060CD53E
:104F5000012700E00227214B04EB021C53F83650D6
:104F6000012303FA0CF3C5F8B431831803F12000D0
:104F700001EB431501EB4010B5F81C5401EB831114
:104F80004068C0F30E402D1A086BADB200B3012A81
:104F9000294619D1FDF7E4FD6FF07F020023144389
:104FA000012101A8CDF80630ADF80A3007238DF8AD
:104FB00004608DF805308DF8084003958DF8097070
:104FC000FDF78EFE05B0F0BDFDF7C0FD0022E5E760
:104FD000D20152B2E2E700BF00280020088300009F
:104FE00000F16043B3F5801F19D3C20607D04FF01C
:104FF000E023D3F8F03DDB0711D500BE7047002950
:105000000DDDBFF34F8F064A0144C2F87002203015
:105010000B1A002BF9DCBFF34F8FBFF36F8F704774
:1050200000ED00E070B50E46044602F11F01154682
:1050300026F00300FFF7D4FF1C220021201D01F001
:10504000FDF80123A5832360636843F08003636058
:10505000636865F31E436360637943F080036371A3
:105060007EB1234635441834064943F8086F53F897
:10507000042B0A4002F58052954202D9A3421A60DD
:10508000F5D170BD00F0FFFF144B70B5154653F815
:10509000306002EB410212480C4605F1200300EBA0
:1050A000821203EB4403D16800EB43136FF38611C4
:1050B000D1604FF4C0619360FFF792FF1CB9D6F83E
:1050C000AC31DB07FBD4003D4FF0010318BF0125D5
:1050D00004EB0514A340C6F8B03170BD088300008E
:1050E0000028002038B54FF4C06204460021214852
:1050F00001F0A4F8204B53F83440D4F8243103F0E5
:105100001F03082B07D94FF0E023D3F8F03DDA074F
:1051100000D500BE38BDD4F8403143F00203C4F8D6
:105120004031D4F840319B07FBD4D4F8A8314FF478
:10513000C061104D23F00303284643F00203C4F876
:10514000A8310923C4F8A431FFF74AFFC4F8585125
:10515000D4F84431C4F8443140F20713C4F848315C
:10516000D4F8403123F47F0343F00103C4F8403105
:10517000D0E700BF0028002008830000084B03EBA5
:10518000C003B3F90430002B08DB0122590903F0F6
:105190001F0302FA03F3034A42F82130704700BFAD
:1051A0000883000000E100E00A4B03EBC003B3F901
:1051B0000430002B0DDB5A09012103F01F03994035
:1051C00002F12003044A42F82310BFF34F8FBFF3CC
:1051D0006F8F70470883000000E100E0064B53F832
:1051E0003030D3F8482121B142F08002C3F8482181
:1051F000704722F08002F9E7088300000D4B10B5DC
:1052000053F8300001F07F04C90900EB8402D2F8A2
:10521000C0310AD043F480331021C2F8C0310C44AD
:105220000123A340C0F8B43110BD43F00103C2F81C
:10523000C031F4E7088300000F4B01F07F02C90979
:1052400053F8303003EB8203D3F8C0210BD042F483
:105250008002C3F8C0216FF48032D3F8C0110A4035
:10526000C3F8C021704742F04002C3F8C0216FF07C
:105270000102D3F8C011F2E708830000314B2DE999
:10528000F04153F830600F468D78D6F8243105F0A0
:105290007F0403F01F03A34209D84FF0E023D3F8A3
:1052A000F03DDB0700D500BE0020BDE8F081ED0930
:1052B000DFF894804022002105EB440008EB8010C9
:1052C00000F0BCFF05EB4403610008EB831324B23C
:1052D000DA7842F02002DA70B8885A8860F30A025D
:1052E0005A80FA7802F00302012A02BFD87862F3EA
:1052F0008710D8704B1914484FF4C06108EB83181D
:105300000123C8F80830FFF76BFEFB7803F00303B6
:105310009B0043F0C00355B906EB8404D4F8C021C8
:10532000120C12041A43C4F8C0210120BDE706EB99
:105330008406D6F8C02192B242EA0343C6F8C031CF
:10534000F3E700BF0883000000280020154B4FF052
:10535000081CF0B553F8304001260023124FD4F852
:10536000240100F01F00591CCAB2904200D8F0BDC1
:1053700007EBC112D56802F1080E45F04005D56073
:10538000D56C45F04005D56403F1110206FA01F52C
:10539000713306FA02F22A43C4F8B42144F823C058
:1053A0000B46E0E70883000000280020F8B50C4613
:1053B00006460D4D114604F07F07E4091A4604F134
:1053C000200000EB470005EB4010FFF72BFE3046B6
:1053D00004EB47032246394605EB831500232B6374
:1053E000FFF752FE0120F8BD0028002038B5002349
:1053F0000C46802105461A466406FFF7D7FF044B8A
:1054000044F0807453F83530C3F8544138BD00BFC0
:10541000088300008B4B2DE9F04353F8304085B0F2
:105420000546D4F84831D4F844611E40C4F84461BC
:10543000002E00F0E38071076ED5D4F844315A068F
:1054400040F1F0804023C4F84431D4F8843113F0A3
:10545000010300F0DB80D4F884314FF00810D4F859
:105460002421C3F38168002302F01F020133D9B263
:105470009142C0F0C680D4F87831C4F87831002366
:10548000C4F87C31D4F84431C4F84431D4F8AC3198
:10549000C4F8AC31D4F8BC31C4F8BC31D4F8B03164
:1054A000002BFBD14FF0FF33C4F8B431D4F8B47102
:1054B000002FFBD1644B4FF4C06239464FF0010915
:1054C000184600F0BBFE6149B0F84220C0F8489091
:1054D0000A40C0F8089042F40152A0F842204288E5
:1054E0000A404FF4C06142F401524280427842F0D7
:1054F00080024270FFF774FDCDF80670CDF80A7097
:10550000ADF80E708DF804508DF805908DF8088078
:10551000012101A8FDF7E4FBF30519D5D4F8843186
:105520001F0615D5D4F8543113F0F05F10D00023C6
:1055300001218DF80450CDF80630CDF80A30ADF8D1
:105540000E3004230DEB03008DF80530FDF7C8FB8A
:10555000F0073ED54FF4C0613B48FFF741FDD4F85A
:10556000BC81C4F8BC81B8F1000F19D0002728FA1B
:1055700007F35FFA87F9D90704D500224946284680
:10558000FFF7D0FC07F1100328FA03F3DA0704D57C
:10559000012249462846FFF7C5FC0137082FE6D10E
:1055A000D4F8AC31ABB1D4F8AC31C4F8AC31002391
:1055B0008DF80450ADF8063006238DF80530244BE5
:1055C00093E8030004AB03E90300012101A8FDF700
:1055D00087FB330612D50023D4F84C21012101A802
:1055E000CDF80630CDF80A30ADF80E3003238DF833
:1055F00004508DF805300292FDF772FB05B0BDE84E
:10560000F08303F1700144F821002FE7CDF8063054
:10561000CDF80A30ADF80E3002238DF804008DF875
:10562000053075E7D4F8843113F080037FF474AF4C
:10563000CDF80630CDF80A30ADF80E3005238DF8E0
:105640000400ECE7088300000028002000D8FFFFDA
:1056500028280020BFF34F8F0549064BCA6802F483
:10566000E0621343CB60BFF34F8F00BFFDE700BF85
:1056700000ED00E00400FA052C4A73B55369DB0322
:1056800027D4536913F4803323D1C2F88430BFF395
:105690004F8FD2F8803043F6E074C3F3C900C3F3F0
:1056A0004E335B0103EA0406014646EA817501397F
:1056B000C2F86052F9D2203B13F1200FF2D1BFF3B0
:1056C0004F8F536943F480335361BFF34F8FBFF360
:1056D0006F8FFCF78DFE4FF0E023002214491A6112
:1056E00001F1780353E8003F43F00C0301F1780027
:1056F00040E80032002AF3D10E490F488B6B43F08B
:1057000080738B6305210D4BC3F8481141F2B00142
:10571000C3F8381301238DF80620032101AAADF840
:105720000430FFF721F902B070BD00BF00ED00E0CA
:1057300000C00F4000400D4000C01B4000801F40D3
:105740007047000010B50C4C00202146FEF7BEFD4E
:1057500021460020FEF71AFD084B09491A6B42F456
:1057600040421A6300221A601A6922F00F1222F4D2
:1057700070621143196110BD00389C1C00900D40EF
:105780000C060600FFF7DEBF70B5044600250320B7
:105790000E4EFFF717F801460C48FFF781FA013566
:1057A00030462946FFF716FB2346221D03F8010B5E
:1057B00093424FEA1020F9D1042D04D10348FFF79A
:1057C000E3FA102070BD1C46E9E700BF00401F400F
:1057D00008B5FFF73FFF0000064B5A689A4207D30F
:1057E000586803F5000398428CBF002001207047E1
:1057F0000020704700C00060054B0648D3E9002137
:10580000836082F3088882F309880847704700BFE5
:1058100000C0006000ED00E00B4B4FF47A721B6893
:10582000B3FBF2F358430138B0F1807F0AD24FF056
:10583000E023064AF021586182F8231000229A6181
:1058400007221A61704700BFF002002000ED00E05F
:105850004FF0E02300221A617047FCF7F3BB000011
:105860007F284FF0030103488CBF00220122FFF77D
:1058700023B800BF00C01B4070470020FFF7CABD1F
:10588000FFF7FBBF0120FFF7C5BD4FF400007047D5
:105890000B460146184600F08BBA00002DE9F04790
:1058A000DFF8B480D8F80040631C4CD04FF480522D
:1058B0002146264800F098FC002840D004F12044FE
:1058C00072B64FF48053224621490020FFF71AFB9D
:1058D00062B604F01F0505F58055BFF34F8F1D49D3
:1058E00022462B46203BC1F85C222032002BF9DCFB
:1058F000BFF34F8FBFF36F8F28BB144F04F5805950
:105900002646DFF84CA072B600203B463246514690
:10591000FFF7EEFA62B6B0B906F5807607F5807744
:105920004E45F0D1BFF34F8F0A4B203DC3F85C4288
:105930002034002DF9DCBFF34F8FBFF36F8F4FF092
:10594000FF33C8F80030BDE8F08700BF002E00200C
:105950000010000000ED00E0F40200202DE9F0410D
:1059600020F47F65DFF8408004460E4625F00F05E1
:10597000D8F800301746AB4209D0FFF78FFF4FF43D
:10598000805229460748C8F8005000F011FAC4F3C5
:105990000B0404483A463146204400F009FA01203D
:1059A000BDE8F081002E0020F402002070B50B4D00
:1059B0000B4EC5F30B0404F1C044B44203D3BDE85D
:1059C0007040FFF76BBF294620464FF4807204F504
:1059D000807405F58075FFF7C1FFEEE70010000049
:1059E00000A0006010B50C4C00202146C4F30B044D
:1059F000FFF778FA094B04F1C044DB692268C3F36E
:105A00000163012B02D0064B9A4203D0BDE810403F
:105A1000FFF7CCBF10BD00BF0010000000800F409A
:105A20004643464210B5064C00202146FFF75AFA7D
:105A300021460020FFF770FABDE81040FFF7B6BF1F
:105A40000010000053B94AB9002908BF00281CBF44
:105A50004FF0FF314FF0FF3000F06AB9ADF1080CA4
:105A60006DE904CE00F006F8DDF804E0DDE902237C
:105A700004B070472DE9F047089D0C46002B4ED12D
:105A800094468C458646B2FA82F262D94AB1C2F196
:105A90002003914020FA03F30CFA02FC194300FAA8
:105AA00002FE4FEA1C471FFA8CF6B1FBF7F44FEAEF
:105AB0001E4307FB141143EA014304FB06F199421C
:105AC0000AD91CEB030304F1FF3080F012819942E4
:105AD00040F20F81023C6344591A1FFA8EF3B1FB66
:105AE000F7F007FB101143EA014300FB06F69E4264
:105AF0000AD91CEB030300F1FF3180F0FC809E42C9
:105B000040F2F980634402389B1B40EA04400021C4
:105B10001DB1D3400022C5E90032BDE8F0878B42B9
:105B200005D90DB1C5E9000100210846F5E7B3FA32
:105B300083F1002946D1A34202D39042C0F0F08005
:105B4000861A64EB03030120002DE6D0C5E900634B
:105B5000E3E7002A40F09080A1EB0C044FEA1C48D8
:105B60001FFA8CF70121B4FBF8F64FEA1E4308FB3D
:105B7000164443EA044307FB06F0984208D91CEB9D
:105B8000030306F1FF3402D2984200F2CD8026468C
:105B90001C1A1FFA8EF3B4FBF8F008FB104443EA1A
:105BA000044300FB07F79F4208D91CEB030300F1F5
:105BB000FF3402D29F4200F2B0802046DB1B40EA55
:105BC0000640A5E7C1F120068B4022FA06F71F43E5
:105BD00020FA06FC04FA01F343EA0C03F44000FA4D
:105BE00001F8380C4FEA1349B4FBF0FE1FFA87FCAA
:105BF00000FB1E4449EA04440EFB0CF9A14502FADD
:105C000001F20AD93C190EF1FF3A80F08480A145D7
:105C100040F28180AEF1020E3C44A4EB09041FFA6D
:105C200083F9B4FBF0F300FB134449EA044403FB9B
:105C30000CFCA44507D93C1903F1FF3067D2A445F9
:105C400065D9023B3C4443EA0E40A0FB0293A4EB1F
:105C50000C049C42CE469C4651D34ED055B1B8EB75
:105C60000E0364EB0C0404FA06F6CB401E43CC4052
:105C7000C5E90064002150E7C2F1200320FA03F1D6
:105C80000CFA02FC24FA03F394400C434FEA1C483C
:105C900000FA02FE1FFA8CF7B3FBF8F008FB103194
:105CA000230C43EA014300FB07F1994208D91CEB9E
:105CB000030300F1FF362CD299422AD902386344FB
:105CC0005B1AA4B2B3FBF8F108FB113344EA0344B6
:105CD00001FB07F3A34208D91CEB040401F1FF36D2
:105CE00013D2A34211D902396444E41A41EA0041B3
:105CF00039E70446F0E6084606E7C845AED2B9EBF8
:105D0000020E63EB070C0138A8E73146EDE70346C6
:105D100099E73046D4E7D6467FE7634402384DE73B
:105D20000646234608460FE7023E634430E700BFBD
:105D3000704700BF08B5064B044613B10021AFF30E
:105D40000080044B1B6803B19847204601F08AF895
:105D500000000000403F002070B50D4D0D4C641B4D
:105D6000A4100026A64209D10B4D0C4C01F004FBF7
:105D7000641BA4100026A64205D170BD55F8043B53
:105D800098470136EEE755F8043B98470136F2E7AD
:105D90009883000098830000988300009C83000093
:105DA000034611F8012B03F8012B002AF9D17047A3
:105DB0000A44914200F1FF3300D1704710B511F849
:105DC000014B03F8014F9142F9D110BD034613F87E
:105DD000012B002AFBD1181A0138704770B50F4EFD
:105DE0000C463168054611B900F0BEF93060214615
:105DF000284600F0B9F9431C03D14FF0FF34204688
:105E000070BDC41C24F00304A042F8D0211A284617
:105E100000F0AAF90130F2D1EFE700BF003E002008
:105E20002DE9F843CD1C25F0030508350C2D38BFAE
:105E30000C25002D064601DBA94204D90C23336052
:105E40000020BDE8F883DFF8D48000F081F9D8F8AD
:105E500000301C4644BB29463046FFF7BFFF431CB9
:105E6000044658D1D8F800402746002F43D1002CD3
:105E70004BD023683946304604EB030900F074F92F
:105E8000814542D121686D1A29463046FFF7A6FFA9
:105E900001303AD023682B442360D8F800305A6888
:105EA00062BBC8F800700FE02268521B20D40B2A96
:105EB00017D96119A342256018BF5960636808BFEC
:105EC000C8F8001062514B60304600F047F904F109
:105ED0000B00231D20F00700C21A1CBF1B1AA35081
:105EE000AFE76268A3420CBFC8F800205A60EBE736
:105EF00023466468AEE73C467F68B6E71A465B68AF
:105F0000A342FBD100235360DEE70C23336030460D
:105F100000F024F994E70560D6E700BF043E0020B6
:105F20001FB514461A46094B1B680546D86854B974
:105F3000074B1C46CDE9013400912B46054900F082
:105F4000B1F800F04DFE044BF4E700BF040300205D
:105F5000538300002583000018830000002310B540
:105F60000446C0E90033C0E904338360818143669D
:105F7000C2818361194608225C3000F05FF90D4B45
:105F800063620D4BA3620D4BE3620D4B23630D4B1C
:105F900024629C4206D003F16802944202D0D033BE
:105FA0009C4205D104F15800BDE8104000F098B9BA
:105FB00010BD00BFC9700000EB700000237100002D
:105FC00047710000083E0020024A0349034800F0E0
:105FD000EDB800BFF8020020ED7A000008030020B1
:105FE00041680C4B994210B5044601D000F07EFD8B
:105FF000A168094B994202D0204600F077FDE16884
:10600000064B994204D02046BDE8104000F06EBD1A
:1060100010BD00BF083E0020703E0020D83E00208A
:1060200010B50B4B0B4C0C4A1A6020460022042181
:10603000FFF794FF04F1680001220921FFF78EFFAA
:1060400004F1D0000222BDE810401221FFF786BF04
:10605000403F0020083E0020C96F0000014800F0CA
:1060600040B900BF453F0020014800F03BB900BFE8
:10607000453F002010B50446FFF7F0FF236A1BB12F
:10608000BDE81040FFF7F0BF044B2362044B1B68D0
:10609000002BF5D1FFF7C4FFF2E700BFE16F00006E
:1060A000403F00200EB403B5014603AB054853F84A
:1060B000042B0068019300F03FF902B05DF804EB97
:1060C00003B070470403002010B50C46B1F90E1060
:1060D00000F0A0FD0028ABBF636DA3891B1823F45B
:1060E0008053ACBF6365A38110BD2DE9F0411F460D
:1060F0008B89DB0505460C46164605D5B1F90E1011
:106100000223002200F074FDA389B4F90E1023F4D9
:106110008053A38132463B462846BDE8F04100F05B
:1061200033B810B50C46B1F90E1000F061FD431CF8
:10613000A38915BF606523F4805343F48053A38182
:1061400018BFA38110BDB1F90E1000F03BBC0000D8
:10615000014800F0C6B800BF443F0020014800F0ED
:10616000C1B800BF443F002038B5064D00230446A7
:1061700008462B6000F060FE431C02D12B6803B17F
:10618000236038BD483F002038B5074D0446084617
:10619000114600222A601A4600F05CFE431C02D120
:1061A0002B6803B1236038BD483F00202DE9F84338
:1061B0000746884614460026D4E90195B9F101093D
:1061C00005D52468002CF7D13046BDE8F883AB89AB
:1061D000012B07D9B5F90E30013303D029463846D3
:1061E000C04706436835E9E710B5013902449042DB
:1061F00001D1002005E0037811F8014FA34201D03E
:10620000181B10BD0130F2E7884210B501EB020403
:1062100002D98442234607D8431EA14208D011F870
:10622000012B03F8012FF8E7024401468A4200D10E
:1062300010BD13F8014D02F8014DF7E70244034683
:10624000934200D1704703F8011BF9E738B50546C2
:10625000002941D051F8043C0C1F002BB8BFE418B2
:10626000FFF776FF1D4A136833B963601460284650
:10627000BDE83840FFF772BFA34208D92068211853
:106280008B4201BF19685B6809182160EDE71A4667
:106290005B680BB1A342FAD911685018A0420BD128
:1062A00020680144501883421160E0D118685B688F
:1062B000536008441060DAE702D90C232B60D6E75C
:1062C000206821188B4204BF19685B68636004BFB3
:1062D000091821605460CAE738BD00BF043E0020A1
:1062E0007047704770479368013B002B10B4936070
:1062F00008DA9469A34201DB0A2903D15DF8044B53
:1063000000F032B91368581C1060197008465DF827
:10631000044B7047F8B506460F461446D518AC42F4
:1063200001D1002007E014F8011B3A463046FFF780
:10633000DAFF431CF3D1F8BD2DE9F04F0D469DB0B7
:1063400014469846064618B1036A0BB9FFF792FE49
:106350006B6ED90705D4AB899A0502D4A86DFFF7F7
:10636000C0FFAB891B0701D52B699BB92946304675
:1063700000F038F970B16B6EDC0704D54FF0FF30D8
:106380001DB0BDE8F08FAB899805F7D4A86DFFF775
:10639000A9FFF3E70023099320238DF82930CDF8D6
:1063A0000C803023DFF8AC818DF82A304FF00109E2
:1063B00023469A4613F8012B0AB1252AF9D1BAEBE4
:1063C000040B0BD05B46224629463046FFF7A2FF5E
:1063D000013000F0A780099A5A4409929AF80030D7
:1063E000002B00F09F8000234FF0FF32CDE9052302
:1063F0000AF1010A049307938DF853301A93544617
:10640000052214F8011B534800F09AFB049AD8B9EE
:10641000D10644BF20238DF85330130744BF2B23EC
:106420008DF853309AF800302A2B15D0079A54462D
:1064300000204FF00A0C214611F8013B303B092B9C
:106440004BD9B0B1079214E0A0EB080309FA03F3AB
:1064500013430493A246D2E7039B191D1B680391C3
:10646000002BBBBF5B4242F0020207930793B8BF09
:10647000049223782E2B0AD163782A2B32D1039BE6
:106480001A1D1B68039243EAE37302340593DFF895
:10649000D4A021780322504600F052FB38B1049B6F
:1064A000A0EB0A004022824013430134049314F805
:1064B000011B29488DF82810062200F041FB002816
:1064C0003FD0264B1BBB039B073323F00703083346
:1064D0000393099B3B4409936AE70CFB02320C4689
:1064E0000120A8E700230134059319464FF00A0C58
:1064F000204610F8012B303A092A03D9002BC6D0C8
:106500000591C4E70CFB012104460123F0E703AB2E
:1065100000932A46124B04A93046AFF30080074689
:10652000781CD6D16B6ED90705D4AB899A0502D4F5
:10653000A86DFFF7D7FEAB895B063FF51FAF099843
:106540001EE703AB00932A46054B04A9304600F032
:106550000DF9E4E7548300005E83000000000000B2
:10656000157300005A830000F8B50E461446054620
:1065700018B1036A0BB9FFF77DFDA369A360A38976
:106580001A0701D5236943B92146284600F02AF8A5
:1065900018B14FF0FF373846F8BD23682269981AC2
:1065A0006369F6B28342374605DC2146284600F08F
:1065B0009DFA0028EDD1A368013BA36023685A1C13
:1065C00022601E706269431C9A4204D0A389DB07D3
:1065D000E1D50A2EDFD12146284600F087FA0028AF
:1065E000D9D0D6E738B5294B054618680C4618B1FE
:1065F000036A0BB9FFF73EFDB4F90C30190722D43A
:10660000DA0607D409222A6043F04003A3814FF041
:10661000FF3033E0580712D5616B41B104F14403F8
:10662000994202D02846FFF711FE00236363A38935
:1066300023F02403A3810023636023692360A389DB
:1066400043F00803A38123694BB9A38903F42073A2
:10665000B3F5007F03D02146284600F013FBB4F9C0
:106660000C3013F001020AD00022A260626952428B
:10667000A261226942B913F08000C5D138BD9907E3
:1066800058BF6269A260F4E70020F7E70403002026
:106690002DE9F047164698468A680B69DDF8209088
:1066A0009342B8BF1346336091F8432007460C4627
:1066B0000AB1013333602368990642BF336802335D
:1066C0003360256815F0060506D104F1190AE36860
:1066D00032689B1AAB4226DC94F843302268003BB8
:1066E00018BF012392062BD404F1430241463846D9
:1066F000C84701301ED02368226903F00603042B2B
:1067000002BFE5683368ED1AA3680CBF25EAE5759A
:1067100000259342C4BF9B1AED1800261A34B542D7
:106720001AD1002008E00123524641463846C847A6
:10673000013003D14FF0FF30BDE8F0870135C6E7E7
:10674000E1185A1C302081F84300224494F8451087
:1067500082F843100233C7E70123224641463846F8
:10676000C8470130E6D00136D9E700002DE9FF47E0
:106770000F7E0C9E782F914680460C469A4601F17A
:10678000430207D8622F0AD8002F00F0DD80582F6F
:1067900000F0C38004F1420684F842703AE0A7F1A9
:1067A0006303152BF6D801A151F823F005780000FA
:1067B0001978000095770000957700009577000024
:1067C0009577000019780000957700009577000014
:1067D00095770000957700002F790000A7780000DA
:1067E000E778000095770000957700005179000068
:1067F00095770000A7780000957700009577000056
:10680000EF78000033681A1D1B68326004F14206FD
:1068100084F842300123A8E031682368081D306005
:106820001E0601D50D6803E05D06FBD5B1F90050E9
:106830006168002D78DA2D20002984F84300A160DA
:106840002DDA5E486D420A231646B5FBF3F103FBD1
:106850001157C75D06F8017D2F46BB420D46F4D99E
:10686000082B0BD12368DF0708D52369616899429B
:10687000DEBF302306F8013C06F1FF36921B226191
:10688000CDF800A04B4603AA21464046FFF700FF83
:1068900001306FD14FF0FF3004B0BDE8F08723F036
:1068A00004032360CDE721683368080653F8045BCE
:1068B00002D4490648BFADB26F2F4048336014BFC1
:1068C0000A230823002184F843106668A660002E7E
:1068D000BADB216821F004012160002DB4D1002E23
:1068E000B2D11646BCE7236843F020032360344846
:1068F000782784F84570236831681F0651F8045BD7
:1069000002D45F0648BFADB23160D90744BF43F03F
:10691000200323601DB11023D4E72848E9E723684A
:1069200023F020032360F6E724480A23CDE73368E9
:1069300025686169181D30602E061B6801D5196035
:1069400002E06806FBD5198000232361164697E70D
:1069500033681A1D32601E6862680021304600F0FC
:10696000EFF808B1801B606063682361002384F83E
:10697000433085E72369324649464046D0470130D7
:1069800088D023689B0714D4E068039B9842B8BF63
:10699000184681E70123324649464046D047013038
:1069A0003FF478AF0135E36803995B1AAB42F1DC41
:1069B000EAE7002504F11906F5E700BF6F7E000045
:1069C0006583000038B5064D0023044608462B6059
:1069D00000F0FAF9431C02D12B6803B1236038BDE3
:1069E000483F0020B1F90C202DE9F041170705467A
:1069F0000C4656D44B68002B02DC0B6C002B3DDDA3
:106A0000E66A002E3AD0002312F480522F68216AE1
:106A10002B6025D0626DA389580705D56368D21A0B
:106A2000636B0BB1236CD21A216AE66A00232846F5
:106A3000B047411C24D00023636023692360A389ED
:106A4000DA0400D56065616B2F60B9B104F14403CD
:106A5000994202D02846FFF7F9FB002363630DE05B
:106A600001232846B047461C0246D4D12B68002B90
:106A7000D1D01D2B01D0162B2BD12F6000202FE061
:106A80002A68B4F90C3042B11D2A01D0162A22D14D
:106A90000023636023692360D5E762602269226076
:106AA000CEE70F69002FE9D093070E6808BF4B6946
:106AB0000F6018BF0023A6EB07088B60B8F1000F2A
:106AC000DCDD216AA66A43463A462846B0470028DC
:106AD00008DCB4F90C3043F04003A3814FF0FF30E1
:106AE000BDE8F0810744A8EB0008E7E738B50B697B
:106AF00005460C4613B90025284638BD18B1036A6F
:106B00000BB9FFF7B7FAB4F90C30002BF3D0626E73
:106B1000D00704D4990502D4A06DFFF7E2FB284604
:106B20002146FFF75FFF636EDA070546E4D4A389C9
:106B30009B05E1D4A06DFFF7D5FBDDE70000000069
:106B400001F0FF01102A2BDB10F0070F08D010F81E
:106B5000013B013A8B422DD010F0070F42B3F6D122
:106B6000F0B441EA012141EA014122F007047FF03B
:106B700000070023F0E80256083C85EA010586EA92
:106B8000010685FA47F5A3FA87F586FA47F6A5FACE
:106B900087F68EB9EED1F0BC01F0FF0102F00702DA
:106BA00032B110F8013B013A83EA010313B1F8D185
:106BB0000020704701387047002D06BF3546033866
:106BC000073815F0010F07D1013015F4807F02BF9F
:106BD000013015F4C03F0130F0BC0138704700BFF0
:106BE00008B5062000F0B2F8012000F03BF90000E3
:106BF00038B5074D04460846114600222A601A4659
:106C000000F00AF9431C02D12B6803B1236038BDA0
:106C1000483F002038B5074D04460846114600227B
:106C20002A601A4600F000F9431C02D12B6803B118
:106C3000236038BD483F002070B50C46B1F90E10F6
:106C4000002996B015461E460DDAA38913F0800F71
:106C50004FF0000114BF40234FF4806300203160E7
:106C60002B6016B070BD6A4600F078F80028ECDBA7
:106C7000019901F47041A1F50053594259414FF473
:106C80008063EBE78B89F7B59D0706460C4607D571
:106C900004F14703236023610123636103B0F0BD66
:106CA00001AB6A46FFF7C8FF009F054639463046EC
